{
  "_format": "hh-sol-artifact-1",
  "contractName": "Market",
  "sourceName": "contracts/Market.sol",
  "abi": [
    {
      "inputs": [],
      "stateMutability": "nonpayable",
      "type": "constructor"
    },
    {
      "anonymous": false,
      "inputs": [
        {
          "indexed": true,
          "internalType": "string",
          "name": "productId",
          "type": "string"
        },
        {
          "indexed": false,
          "internalType": "address",
          "name": "owner",
          "type": "address"
        }
      ],
      "name": "ProductCreated",
      "type": "event"
    },
    {
      "anonymous": false,
      "inputs": [
        {
          "indexed": true,
          "internalType": "string",
          "name": "productId",
          "type": "string"
        },
        {
          "indexed": true,
          "internalType": "address",
          "name": "owner",
          "type": "address"
        },
        {
          "indexed": true,
          "internalType": "address",
          "name": "seller",
          "type": "address"
        },
        {
          "indexed": false,
          "internalType": "uint256",
          "name": "price",
          "type": "uint256"
        },
        {
          "indexed": false,
          "internalType": "uint256",
          "name": "timeStamp",
          "type": "uint256"
        }
      ],
      "name": "TranscationMade",
      "type": "event"
    },
    {
      "inputs": [
        {
          "internalType": "string",
          "name": "pid",
          "type": "string"
        },
        {
          "internalType": "uint256",
          "name": "timeStamp",
          "type": "uint256"
        }
      ],
      "name": "buyProduct",
      "outputs": [],
      "stateMutability": "payable",
      "type": "function"
    },
    {
      "inputs": [
        {
          "internalType": "uint256",
          "name": "price",
          "type": "uint256"
        },
        {
          "internalType": "string",
          "name": "productId",
          "type": "string"
        }
      ],
      "name": "createProduct",
      "outputs": [],
      "stateMutability": "nonpayable",
      "type": "function"
    },
    {
      "inputs": [],
      "name": "getAllTranscation",
      "outputs": [
        {
          "components": [
            {
              "internalType": "string",
              "name": "productId",
              "type": "string"
            },
            {
              "internalType": "address",
              "name": "sellerAddress",
              "type": "address"
            },
            {
              "internalType": "address",
              "name": "buyyerAddress",
              "type": "address"
            },
            {
              "internalType": "uint256",
              "name": "amount",
              "type": "uint256"
            },
            {
              "internalType": "uint256",
              "name": "timeStamp",
              "type": "uint256"
            }
          ],
          "internalType": "struct Market.Transcation[]",
          "name": "",
          "type": "tuple[]"
        }
      ],
      "stateMutability": "view",
      "type": "function"
    },
    {
      "inputs": [
        {
          "internalType": "string",
          "name": "productId",
          "type": "string"
        }
      ],
      "name": "getProductInfo",
      "outputs": [
        {
          "components": [
            {
              "internalType": "address payable",
              "name": "owner",
              "type": "address"
            },
            {
              "internalType": "uint256",
              "name": "price",
              "type": "uint256"
            }
          ],
          "internalType": "struct Market.Product",
          "name": "",
          "type": "tuple"
        }
      ],
      "stateMutability": "view",
      "type": "function"
    },
    {
      "inputs": [],
      "name": "totalSells",
      "outputs": [
        {
          "internalType": "uint256",
          "name": "",
          "type": "uint256"
        }
      ],
      "stateMutability": "view",
      "type": "function"
    }
  ],
  "bytecode": "0x608060405234801561001057600080fd5b50600060028190555061117a806100286000396000f3fe60806040526004361061004a5760003560e01c80630a01841d1461004f5780632afe405a1461007857806357ba11b014610094578063bd9cdc1f146100d1578063fc087d7d146100fc575b600080fd5b34801561005b57600080fd5b5061007660048036038101906100719190610921565b610127565b005b610092600480360381019061008d919061097d565b61021b565b005b3480156100a057600080fd5b506100bb60048036038101906100b691906109d9565b610512565b6040516100c89190610aa1565b60405180910390f35b3480156100dd57600080fd5b506100e66105aa565b6040516100f39190610c94565b60405180910390f35b34801561010857600080fd5b5061011161075b565b60405161011e9190610cc5565b60405180910390f35b600060405180604001604052803373ffffffffffffffffffffffffffffffffffffffff168152602001848152509050806001836040516101679190610d1c565b908152602001604051809103902060008201518160000160006101000a81548173ffffffffffffffffffffffffffffffffffffffff021916908373ffffffffffffffffffffffffffffffffffffffff16021790555060208201518160010155905050816040516101d79190610d1c565b60405180910390207f6276b46249f3ef9f8582903c6f0d43109febb82b3ec9f4dbd15662bb71ec9c7b3360405161020e9190610d42565b60405180910390a2505050565b600060018360405161022d9190610d1c565b90815260200160405180910390209050806001015434101561024e57600080fd5b60008160000160009054906101000a900473ffffffffffffffffffffffffffffffffffffffff16905060008173ffffffffffffffffffffffffffffffffffffffff166108fc349081150290604051600060405180830381858888f193505050509050806102f0576040517f08c379a00000000000000000000000000000000000000000000000000000000081526004016102e790610dba565b60405180910390fd5b338360000160006101000a81548173ffffffffffffffffffffffffffffffffffffffff021916908373ffffffffffffffffffffffffffffffffffffffff16021790555034600260008282546103459190610e09565b9250508190555060006040518060a001604052808781526020018473ffffffffffffffffffffffffffffffffffffffff1681526020013373ffffffffffffffffffffffffffffffffffffffff16815260200185600101548152602001868152509050600081908060018154018082558091505060019003906000526020600020906005020160009091909190915060008201518160000190816103e89190611049565b5060208201518160010160006101000a81548173ffffffffffffffffffffffffffffffffffffffff021916908373ffffffffffffffffffffffffffffffffffffffff16021790555060408201518160020160006101000a81548173ffffffffffffffffffffffffffffffffffffffff021916908373ffffffffffffffffffffffffffffffffffffffff160217905550606082015181600301556080820151816004015550508273ffffffffffffffffffffffffffffffffffffffff163373ffffffffffffffffffffffffffffffffffffffff16876040516104c99190610d1c565b60405180910390207f74c7468233c28bb24b326c802a51215388ccdc1903d62dd93e5c83903b7d7b8d348960405161050292919061111b565b60405180910390a4505050505050565b61051a610761565b60018260405161052a9190610d1c565b90815260200160405180910390206040518060400160405290816000820160009054906101000a900473ffffffffffffffffffffffffffffffffffffffff1673ffffffffffffffffffffffffffffffffffffffff1673ffffffffffffffffffffffffffffffffffffffff1681526020016001820154815250509050919050565b60606000805480602002602001604051908101604052809291908181526020016000905b8282101561075257838290600052602060002090600502016040518060a001604052908160008201805461060190610e6c565b80601f016020809104026020016040519081016040528092919081815260200182805461062d90610e6c565b801561067a5780601f1061064f5761010080835404028352916020019161067a565b820191906000526020600020905b81548152906001019060200180831161065d57829003601f168201915b505050505081526020016001820160009054906101000a900473ffffffffffffffffffffffffffffffffffffffff1673ffffffffffffffffffffffffffffffffffffffff1673ffffffffffffffffffffffffffffffffffffffff1681526020016002820160009054906101000a900473ffffffffffffffffffffffffffffffffffffffff1673ffffffffffffffffffffffffffffffffffffffff1673ffffffffffffffffffffffffffffffffffffffff16815260200160038201548152602001600482015481525050815260200190600101906105ce565b50505050905090565b60025481565b6040518060400160405280600073ffffffffffffffffffffffffffffffffffffffff168152602001600081525090565b6000604051905090565b600080fd5b600080fd5b6000819050919050565b6107b8816107a5565b81146107c357600080fd5b50565b6000813590506107d5816107af565b92915050565b600080fd5b600080fd5b6000601f19601f8301169050919050565b7f4e487b7100000000000000000000000000000000000000000000000000000000600052604160045260246000fd5b61082e826107e5565b810181811067ffffffffffffffff8211171561084d5761084c6107f6565b5b80604052505050565b6000610860610791565b905061086c8282610825565b919050565b600067ffffffffffffffff82111561088c5761088b6107f6565b5b610895826107e5565b9050602081019050919050565b82818337600083830152505050565b60006108c46108bf84610871565b610856565b9050828152602081018484840111156108e0576108df6107e0565b5b6108eb8482856108a2565b509392505050565b600082601f830112610908576109076107db565b5b81356109188482602086016108b1565b91505092915050565b600080604083850312156109385761093761079b565b5b6000610946858286016107c6565b925050602083013567ffffffffffffffff811115610967576109666107a0565b5b610973858286016108f3565b9150509250929050565b600080604083850312156109945761099361079b565b5b600083013567ffffffffffffffff8111156109b2576109b16107a0565b5b6109be858286016108f3565b92505060206109cf858286016107c6565b9150509250929050565b6000602082840312156109ef576109ee61079b565b5b600082013567ffffffffffffffff811115610a0d57610a0c6107a0565b5b610a19848285016108f3565b91505092915050565b600073ffffffffffffffffffffffffffffffffffffffff82169050919050565b6000610a4d82610a22565b9050919050565b610a5d81610a42565b82525050565b610a6c816107a5565b82525050565b604082016000820151610a886000850182610a54565b506020820151610a9b6020850182610a63565b50505050565b6000604082019050610ab66000830184610a72565b92915050565b600081519050919050565b600082825260208201905092915050565b6000819050602082019050919050565b600081519050919050565b600082825260208201905092915050565b60005b83811015610b22578082015181840152602081019050610b07565b60008484015250505050565b6000610b3982610ae8565b610b438185610af3565b9350610b53818560208601610b04565b610b5c816107e5565b840191505092915050565b6000610b7282610a22565b9050919050565b610b8281610b67565b82525050565b600060a0830160008301518482036000860152610ba58282610b2e565b9150506020830151610bba6020860182610b79565b506040830151610bcd6040860182610b79565b506060830151610be06060860182610a63565b506080830151610bf36080860182610a63565b508091505092915050565b6000610c0a8383610b88565b905092915050565b6000602082019050919050565b6000610c2a82610abc565b610c348185610ac7565b935083602082028501610c4685610ad8565b8060005b85811015610c825784840389528151610c638582610bfe565b9450610c6e83610c12565b925060208a01995050600181019050610c4a565b50829750879550505050505092915050565b60006020820190508181036000830152610cae8184610c1f565b905092915050565b610cbf816107a5565b82525050565b6000602082019050610cda6000830184610cb6565b92915050565b600081905092915050565b6000610cf682610ae8565b610d008185610ce0565b9350610d10818560208601610b04565b80840191505092915050565b6000610d288284610ceb565b915081905092915050565b610d3c81610b67565b82525050565b6000602082019050610d576000830184610d33565b92915050565b600082825260208201905092915050565b7f5472616e73666572206661696c65640000000000000000000000000000000000600082015250565b6000610da4600f83610d5d565b9150610daf82610d6e565b602082019050919050565b60006020820190508181036000830152610dd381610d97565b9050919050565b7f4e487b7100000000000000000000000000000000000000000000000000000000600052601160045260246000fd5b6000610e14826107a5565b9150610e1f836107a5565b9250828201905080821115610e3757610e36610dda565b5b92915050565b7f4e487b7100000000000000000000000000000000000000000000000000000000600052602260045260246000fd5b60006002820490506001821680610e8457607f821691505b602082108103610e9757610e96610e3d565b5b50919050565b60008190508160005260206000209050919050565b60006020601f8301049050919050565b600082821b905092915050565b600060088302610eff7fffffffffffffffffffffffffffffffffffffffffffffffffffffffffffffffff82610ec2565b610f098683610ec2565b95508019841693508086168417925050509392505050565b6000819050919050565b6000610f46610f41610f3c846107a5565b610f21565b6107a5565b9050919050565b6000819050919050565b610f6083610f2b565b610f74610f6c82610f4d565b848454610ecf565b825550505050565b600090565b610f89610f7c565b610f94818484610f57565b505050565b5b81811015610fb857610fad600082610f81565b600181019050610f9a565b5050565b601f821115610ffd57610fce81610e9d565b610fd784610eb2565b81016020851015610fe6578190505b610ffa610ff285610eb2565b830182610f99565b50505b505050565b600082821c905092915050565b600061102060001984600802611002565b1980831691505092915050565b6000611039838361100f565b9150826002028217905092915050565b61105282610ae8565b67ffffffffffffffff81111561106b5761106a6107f6565b5b6110758254610e6c565b611080828285610fbc565b600060209050601f8311600181146110b357600084156110a1578287015190505b6110ab858261102d565b865550611113565b601f1984166110c186610e9d565b60005b828110156110e9578489015182556001820191506020850194506020810190506110c4565b868310156111065784890151611102601f89168261100f565b8355505b6001600288020188555050505b505050505050565b60006040820190506111306000830185610cb6565b61113d6020830184610cb6565b939250505056fea26469706673582212201abcb3b3be426643d9094830389e2916f790ac12873a4c185831638ae27c76a764736f6c63430008180033",
  "linkReferences": {},
  "deployedLinkReferences": {}
}