{
  "_format": "hh-sol-artifact-1",
  "contractName": "Market",
  "sourceName": "contracts/Market.sol",
  "abi": [
    {
      "inputs": [],
      "stateMutability": "nonpayable",
      "type": "constructor"
    },
    {
      "inputs": [
        {
          "internalType": "uint256",
          "name": "productIndex",
          "type": "uint256"
        },
        {
          "internalType": "uint256",
          "name": "timeStamp",
          "type": "uint256"
        }
      ],
      "name": "buyProduct",
      "outputs": [],
      "stateMutability": "payable",
      "type": "function"
    },
    {
      "inputs": [
        {
          "internalType": "uint256",
          "name": "price",
          "type": "uint256"
        }
      ],
      "name": "createProduct",
      "outputs": [
        {
          "internalType": "uint256",
          "name": "",
          "type": "uint256"
        }
      ],
      "stateMutability": "nonpayable",
      "type": "function"
    },
    {
      "inputs": [],
      "name": "getAllTranscation",
      "outputs": [
        {
          "components": [
            {
              "internalType": "uint256",
              "name": "pid",
              "type": "uint256"
            },
            {
              "internalType": "address",
              "name": "sellerAddress",
              "type": "address"
            },
            {
              "internalType": "address",
              "name": "buyyerAddress",
              "type": "address"
            },
            {
              "internalType": "uint256",
              "name": "amount",
              "type": "uint256"
            },
            {
              "internalType": "uint256",
              "name": "timeStamp",
              "type": "uint256"
            }
          ],
          "internalType": "struct Market.Transcation[]",
          "name": "",
          "type": "tuple[]"
        }
      ],
      "stateMutability": "view",
      "type": "function"
    },
    {
      "inputs": [],
      "name": "totalSells",
      "outputs": [
        {
          "internalType": "uint256",
          "name": "",
          "type": "uint256"
        }
      ],
      "stateMutability": "view",
      "type": "function"
    }
  ],
  "bytecode": "0x608060405234801561001057600080fd5b5060006002819055506109ef806100286000396000f3fe60806040526004361061003f5760003560e01c80632a422e921461004457806353b6286614610081578063bd9cdc1f1461009d578063fc087d7d146100c8575b600080fd5b34801561005057600080fd5b5061006b600480360381019061006691906105ea565b6100f3565b6040516100789190610626565b60405180910390f35b61009b60048036038101906100969190610641565b6101bb565b005b3480156100a957600080fd5b506100b2610480565b6040516100bf91906107e8565b60405180910390f35b3480156100d457600080fd5b506100dd6105a9565b6040516100ea9190610626565b60405180910390f35b60008060405180604001604052803373ffffffffffffffffffffffffffffffffffffffff168152602001848152509050600181908060018154018082558091505060019003906000526020600020906002020160009091909190915060008201518160000160006101000a81548173ffffffffffffffffffffffffffffffffffffffff021916908373ffffffffffffffffffffffffffffffffffffffff160217905550602082015181600101555050600180805490506101b39190610839565b915050919050565b6000821180156101cf575060018054905082105b61020e576040517f08c379a0000000000000000000000000000000000000000000000000000000008152600401610205906108ca565b60405180910390fd5b600060018381548110610224576102236108ea565b5b90600052602060002090600202019050806001015434101561024557600080fd5b60008160000160009054906101000a900473ffffffffffffffffffffffffffffffffffffffff169050338260000160006101000a81548173ffffffffffffffffffffffffffffffffffffffff021916908373ffffffffffffffffffffffffffffffffffffffff16021790555060008173ffffffffffffffffffffffffffffffffffffffff166108fc349081150290604051600060405180830381858888f1935050505090508061032a576040517f08c379a000000000000000000000000000000000000000000000000000000000815260040161032190610965565b60405180910390fd5b346002600082825461033c9190610985565b9250508190555060006040518060a001604052808781526020018473ffffffffffffffffffffffffffffffffffffffff1681526020013373ffffffffffffffffffffffffffffffffffffffff1681526020018560010154815260200186815250905060008190806001815401808255809150506001900390600052602060002090600502016000909190919091506000820151816000015560208201518160010160006101000a81548173ffffffffffffffffffffffffffffffffffffffff021916908373ffffffffffffffffffffffffffffffffffffffff16021790555060408201518160020160006101000a81548173ffffffffffffffffffffffffffffffffffffffff021916908373ffffffffffffffffffffffffffffffffffffffff16021790555060608201518160030155608082015181600401555050505050505050565b60606000805480602002602001604051908101604052809291908181526020016000905b828210156105a057838290600052602060002090600502016040518060a0016040529081600082015481526020016001820160009054906101000a900473ffffffffffffffffffffffffffffffffffffffff1673ffffffffffffffffffffffffffffffffffffffff1673ffffffffffffffffffffffffffffffffffffffff1681526020016002820160009054906101000a900473ffffffffffffffffffffffffffffffffffffffff1673ffffffffffffffffffffffffffffffffffffffff1673ffffffffffffffffffffffffffffffffffffffff16815260200160038201548152602001600482015481525050815260200190600101906104a4565b50505050905090565b60025481565b600080fd5b6000819050919050565b6105c7816105b4565b81146105d257600080fd5b50565b6000813590506105e4816105be565b92915050565b600060208284031215610600576105ff6105af565b5b600061060e848285016105d5565b91505092915050565b610620816105b4565b82525050565b600060208201905061063b6000830184610617565b92915050565b60008060408385031215610658576106576105af565b5b6000610666858286016105d5565b9250506020610677858286016105d5565b9150509250929050565b600081519050919050565b600082825260208201905092915050565b6000819050602082019050919050565b6106b6816105b4565b82525050565b600073ffffffffffffffffffffffffffffffffffffffff82169050919050565b60006106e7826106bc565b9050919050565b6106f7816106dc565b82525050565b60a08201600082015161071360008501826106ad565b50602082015161072660208501826106ee565b50604082015161073960408501826106ee565b50606082015161074c60608501826106ad565b50608082015161075f60808501826106ad565b50505050565b600061077183836106fd565b60a08301905092915050565b6000602082019050919050565b600061079582610681565b61079f818561068c565b93506107aa8361069d565b8060005b838110156107db5781516107c28882610765565b97506107cd8361077d565b9250506001810190506107ae565b5085935050505092915050565b60006020820190508181036000830152610802818461078a565b905092915050565b7f4e487b7100000000000000000000000000000000000000000000000000000000600052601160045260246000fd5b6000610844826105b4565b915061084f836105b4565b92508282039050818111156108675761086661080a565b5b92915050565b600082825260208201905092915050565b7f496e76616c69642070726f6475637420696e6465780000000000000000000000600082015250565b60006108b460158361086d565b91506108bf8261087e565b602082019050919050565b600060208201905081810360008301526108e3816108a7565b9050919050565b7f4e487b7100000000000000000000000000000000000000000000000000000000600052603260045260246000fd5b7f5472616e73666572206661696c65640000000000000000000000000000000000600082015250565b600061094f600f8361086d565b915061095a82610919565b602082019050919050565b6000602082019050818103600083015261097e81610942565b9050919050565b6000610990826105b4565b915061099b836105b4565b92508282019050808211156109b3576109b261080a565b5b9291505056fea264697066735822122085a78cf146d8ffdd7ef00df01539080d567f9d4f1f13f5ba410fdc5196c0697264736f6c63430008180033",
  "linkReferences": {},
  "deployedLinkReferences": {}
}