{
  "_format": "hh-sol-artifact-1",
  "contractName": "Market",
  "sourceName": "contracts/Market.sol",
  "abi": [
    {
      "inputs": [],
      "stateMutability": "nonpayable",
      "type": "constructor"
    },
    {
      "anonymous": false,
      "inputs": [
        {
          "indexed": true,
          "internalType": "uint256",
          "name": "productId",
          "type": "uint256"
        },
        {
          "indexed": false,
          "internalType": "address",
          "name": "owner",
          "type": "address"
        }
      ],
      "name": "ProductCreated",
      "type": "event"
    },
    {
      "anonymous": false,
      "inputs": [
        {
          "indexed": true,
          "internalType": "uint256",
          "name": "productId",
          "type": "uint256"
        },
        {
          "indexed": true,
          "internalType": "address",
          "name": "owner",
          "type": "address"
        },
        {
          "indexed": true,
          "internalType": "address",
          "name": "seller",
          "type": "address"
        },
        {
          "indexed": false,
          "internalType": "uint256",
          "name": "price",
          "type": "uint256"
        },
        {
          "indexed": false,
          "internalType": "uint256",
          "name": "timeStamp",
          "type": "uint256"
        }
      ],
      "name": "TranscationMade",
      "type": "event"
    },
    {
      "inputs": [
        {
          "internalType": "uint256",
          "name": "productIndex",
          "type": "uint256"
        },
        {
          "internalType": "uint256",
          "name": "timeStamp",
          "type": "uint256"
        }
      ],
      "name": "buyProduct",
      "outputs": [],
      "stateMutability": "payable",
      "type": "function"
    },
    {
      "inputs": [
        {
          "internalType": "uint256",
          "name": "price",
          "type": "uint256"
        }
      ],
      "name": "createProduct",
      "outputs": [],
      "stateMutability": "nonpayable",
      "type": "function"
    },
    {
      "inputs": [],
      "name": "getAllProducts",
      "outputs": [
        {
          "components": [
            {
              "internalType": "address payable",
              "name": "owner",
              "type": "address"
            },
            {
              "internalType": "uint256",
              "name": "price",
              "type": "uint256"
            }
          ],
          "internalType": "struct Market.Product[]",
          "name": "",
          "type": "tuple[]"
        }
      ],
      "stateMutability": "view",
      "type": "function"
    },
    {
      "inputs": [],
      "name": "getAllTranscation",
      "outputs": [
        {
          "components": [
            {
              "internalType": "uint256",
              "name": "pid",
              "type": "uint256"
            },
            {
              "internalType": "address",
              "name": "sellerAddress",
              "type": "address"
            },
            {
              "internalType": "address",
              "name": "buyyerAddress",
              "type": "address"
            },
            {
              "internalType": "uint256",
              "name": "amount",
              "type": "uint256"
            },
            {
              "internalType": "uint256",
              "name": "timeStamp",
              "type": "uint256"
            }
          ],
          "internalType": "struct Market.Transcation[]",
          "name": "",
          "type": "tuple[]"
        }
      ],
      "stateMutability": "view",
      "type": "function"
    },
    {
      "inputs": [],
      "name": "totalSells",
      "outputs": [
        {
          "internalType": "uint256",
          "name": "",
          "type": "uint256"
        }
      ],
      "stateMutability": "view",
      "type": "function"
    }
  ],
  "bytecode": "0x608060405234801561001057600080fd5b506000600281905550610cdf806100286000396000f3fe60806040526004361061004a5760003560e01c806302ee3a521461004f5780632a422e921461007a57806353b62866146100a3578063bd9cdc1f146100bf578063fc087d7d146100ea575b600080fd5b34801561005b57600080fd5b50610064610115565b6040516100719190610863565b60405180910390f35b34801561008657600080fd5b506100a1600480360381019061009c91906108b6565b6101d4565b005b6100bd60048036038101906100b891906108e3565b6102ce565b005b3480156100cb57600080fd5b506100d46105fc565b6040516100e19190610a5b565b60405180910390f35b3480156100f657600080fd5b506100ff610725565b60405161010c9190610a8c565b60405180910390f35b60606001805480602002602001604051908101604052809291908181526020016000905b828210156101cb57838290600052602060002090600202016040518060400160405290816000820160009054906101000a900473ffffffffffffffffffffffffffffffffffffffff1673ffffffffffffffffffffffffffffffffffffffff1673ffffffffffffffffffffffffffffffffffffffff16815260200160018201548152505081526020019060010190610139565b50505050905090565b600060405180604001604052803373ffffffffffffffffffffffffffffffffffffffff168152602001838152509050600181908060018154018082558091505060019003906000526020600020906002020160009091909190915060008201518160000160006101000a81548173ffffffffffffffffffffffffffffffffffffffff021916908373ffffffffffffffffffffffffffffffffffffffff160217905550602082015181600101555050600180805490506102939190610ad6565b7fe8bb4e90e950f7b76a8c4e472b3b5e01d41c478f9eeaea36b4ba991f51133f91336040516102c29190610b19565b60405180910390a25050565b600082101580156102e3575060018054905082105b610322576040517f08c379a000000000000000000000000000000000000000000000000000000000815260040161031990610b91565b60405180910390fd5b60006001838154811061033857610337610bb1565b5b90600052602060002090600202019050806001015434101561035957600080fd5b60008160000160009054906101000a900473ffffffffffffffffffffffffffffffffffffffff169050338260000160006101000a81548173ffffffffffffffffffffffffffffffffffffffff021916908373ffffffffffffffffffffffffffffffffffffffff16021790555060008173ffffffffffffffffffffffffffffffffffffffff166108fc349081150290604051600060405180830381858888f1935050505090508061043e576040517f08c379a000000000000000000000000000000000000000000000000000000000815260040161043590610c2c565b60405180910390fd5b34600260008282546104509190610c4c565b9250508190555060006040518060a001604052808781526020018473ffffffffffffffffffffffffffffffffffffffff1681526020013373ffffffffffffffffffffffffffffffffffffffff1681526020018560010154815260200186815250905060008190806001815401808255809150506001900390600052602060002090600502016000909190919091506000820151816000015560208201518160010160006101000a81548173ffffffffffffffffffffffffffffffffffffffff021916908373ffffffffffffffffffffffffffffffffffffffff16021790555060408201518160020160006101000a81548173ffffffffffffffffffffffffffffffffffffffff021916908373ffffffffffffffffffffffffffffffffffffffff160217905550606082015181600301556080820151816004015550508273ffffffffffffffffffffffffffffffffffffffff163373ffffffffffffffffffffffffffffffffffffffff16877fe2f1a45c20c77f24e4f54d9ef576a4990fa9b0f718edc11080e781eec96d1fcc34896040516105ec929190610c80565b60405180910390a4505050505050565b60606000805480602002602001604051908101604052809291908181526020016000905b8282101561071c57838290600052602060002090600502016040518060a0016040529081600082015481526020016001820160009054906101000a900473ffffffffffffffffffffffffffffffffffffffff1673ffffffffffffffffffffffffffffffffffffffff1673ffffffffffffffffffffffffffffffffffffffff1681526020016002820160009054906101000a900473ffffffffffffffffffffffffffffffffffffffff1673ffffffffffffffffffffffffffffffffffffffff1673ffffffffffffffffffffffffffffffffffffffff1681526020016003820154815260200160048201548152505081526020019060010190610620565b50505050905090565b60025481565b600081519050919050565b600082825260208201905092915050565b6000819050602082019050919050565b600073ffffffffffffffffffffffffffffffffffffffff82169050919050565b600061078282610757565b9050919050565b61079281610777565b82525050565b6000819050919050565b6107ab81610798565b82525050565b6040820160008201516107c76000850182610789565b5060208201516107da60208501826107a2565b50505050565b60006107ec83836107b1565b60408301905092915050565b6000602082019050919050565b60006108108261072b565b61081a8185610736565b935061082583610747565b8060005b8381101561085657815161083d88826107e0565b9750610848836107f8565b925050600181019050610829565b5085935050505092915050565b6000602082019050818103600083015261087d8184610805565b905092915050565b600080fd5b61089381610798565b811461089e57600080fd5b50565b6000813590506108b08161088a565b92915050565b6000602082840312156108cc576108cb610885565b5b60006108da848285016108a1565b91505092915050565b600080604083850312156108fa576108f9610885565b5b6000610908858286016108a1565b9250506020610919858286016108a1565b9150509250929050565b600081519050919050565b600082825260208201905092915050565b6000819050602082019050919050565b600061095a82610757565b9050919050565b61096a8161094f565b82525050565b60a08201600082015161098660008501826107a2565b5060208201516109996020850182610961565b5060408201516109ac6040850182610961565b5060608201516109bf60608501826107a2565b5060808201516109d260808501826107a2565b50505050565b60006109e48383610970565b60a08301905092915050565b6000602082019050919050565b6000610a0882610923565b610a12818561092e565b9350610a1d8361093f565b8060005b83811015610a4e578151610a3588826109d8565b9750610a40836109f0565b925050600181019050610a21565b5085935050505092915050565b60006020820190508181036000830152610a7581846109fd565b905092915050565b610a8681610798565b82525050565b6000602082019050610aa16000830184610a7d565b92915050565b7f4e487b7100000000000000000000000000000000000000000000000000000000600052601160045260246000fd5b6000610ae182610798565b9150610aec83610798565b9250828203905081811115610b0457610b03610aa7565b5b92915050565b610b138161094f565b82525050565b6000602082019050610b2e6000830184610b0a565b92915050565b600082825260208201905092915050565b7f496e76616c69642070726f6475637420696e6465780000000000000000000000600082015250565b6000610b7b601583610b34565b9150610b8682610b45565b602082019050919050565b60006020820190508181036000830152610baa81610b6e565b9050919050565b7f4e487b7100000000000000000000000000000000000000000000000000000000600052603260045260246000fd5b7f5472616e73666572206661696c65640000000000000000000000000000000000600082015250565b6000610c16600f83610b34565b9150610c2182610be0565b602082019050919050565b60006020820190508181036000830152610c4581610c09565b9050919050565b6000610c5782610798565b9150610c6283610798565b9250828201905080821115610c7a57610c79610aa7565b5b92915050565b6000604082019050610c956000830185610a7d565b610ca26020830184610a7d565b939250505056fea2646970667358221220b46071104ca641cc321267f9d1ad5e292554ce3554238186bf5189aa1d5803cd64736f6c63430008180033",
  "linkReferences": {},
  "deployedLinkReferences": {}
}