{
  "_format": "hh-sol-artifact-1",
  "contractName": "Market",
  "sourceName": "contracts/Market.sol",
  "abi": [
    {
      "inputs": [],
      "stateMutability": "nonpayable",
      "type": "constructor"
    },
    {
      "anonymous": false,
      "inputs": [
        {
          "indexed": true,
          "internalType": "string",
          "name": "productId",
          "type": "string"
        },
        {
          "indexed": false,
          "internalType": "address",
          "name": "owner",
          "type": "address"
        }
      ],
      "name": "ProductCreated",
      "type": "event"
    },
    {
      "anonymous": false,
      "inputs": [
        {
          "indexed": true,
          "internalType": "string",
          "name": "productId",
          "type": "string"
        },
        {
          "indexed": true,
          "internalType": "address",
          "name": "owner",
          "type": "address"
        },
        {
          "indexed": true,
          "internalType": "address",
          "name": "seller",
          "type": "address"
        },
        {
          "indexed": false,
          "internalType": "uint256",
          "name": "price",
          "type": "uint256"
        },
        {
          "indexed": false,
          "internalType": "uint256",
          "name": "timeStamp",
          "type": "uint256"
        }
      ],
      "name": "TranscationMade",
      "type": "event"
    },
    {
      "inputs": [
        {
          "internalType": "string",
          "name": "pid",
          "type": "string"
        },
        {
          "internalType": "uint256",
          "name": "timeStamp",
          "type": "uint256"
        }
      ],
      "name": "buyProduct",
      "outputs": [],
      "stateMutability": "payable",
      "type": "function"
    },
    {
      "inputs": [
        {
          "internalType": "uint256",
          "name": "price",
          "type": "uint256"
        },
        {
          "internalType": "string",
          "name": "productId",
          "type": "string"
        }
      ],
      "name": "createProduct",
      "outputs": [],
      "stateMutability": "nonpayable",
      "type": "function"
    },
    {
      "inputs": [],
      "name": "getAllTranscation",
      "outputs": [
        {
          "components": [
            {
              "internalType": "string",
              "name": "productId",
              "type": "string"
            },
            {
              "internalType": "address",
              "name": "sellerAddress",
              "type": "address"
            },
            {
              "internalType": "address",
              "name": "buyyerAddress",
              "type": "address"
            },
            {
              "internalType": "uint256",
              "name": "amount",
              "type": "uint256"
            },
            {
              "internalType": "uint256",
              "name": "timeStamp",
              "type": "uint256"
            }
          ],
          "internalType": "struct Market.Transcation[]",
          "name": "",
          "type": "tuple[]"
        }
      ],
      "stateMutability": "view",
      "type": "function"
    },
    {
      "inputs": [
        {
          "internalType": "string",
          "name": "productId",
          "type": "string"
        }
      ],
      "name": "getProductInfo",
      "outputs": [
        {
          "components": [
            {
              "internalType": "address payable",
              "name": "owner",
              "type": "address"
            },
            {
              "internalType": "uint256",
              "name": "price",
              "type": "uint256"
            }
          ],
          "internalType": "struct Market.Product",
          "name": "",
          "type": "tuple"
        }
      ],
      "stateMutability": "view",
      "type": "function"
    },
    {
      "inputs": [],
      "name": "owner",
      "outputs": [
        {
          "internalType": "address",
          "name": "",
          "type": "address"
        }
      ],
      "stateMutability": "view",
      "type": "function"
    },
    {
      "inputs": [],
      "name": "totalSells",
      "outputs": [
        {
          "internalType": "uint256",
          "name": "",
          "type": "uint256"
        }
      ],
      "stateMutability": "view",
      "type": "function"
    }
  ],
  "bytecode": "0x608060405234801561001057600080fd5b506000600381905550336000806101000a81548173ffffffffffffffffffffffffffffffffffffffff021916908373ffffffffffffffffffffffffffffffffffffffff1602179055506111d4806100686000396000f3fe6080604052600436106100555760003560e01c80630a01841d1461005a5780632afe405a1461008357806357ba11b01461009f5780638da5cb5b146100dc578063bd9cdc1f14610107578063fc087d7d14610132575b600080fd5b34801561006657600080fd5b50610081600480360381019061007c919061097b565b61015d565b005b61009d600480360381019061009891906109d7565b610251565b005b3480156100ab57600080fd5b506100c660048036038101906100c19190610a33565b610548565b6040516100d39190610afb565b60405180910390f35b3480156100e857600080fd5b506100f16105e0565b6040516100fe9190610b37565b60405180910390f35b34801561011357600080fd5b5061011c610604565b6040516101299190610d18565b60405180910390f35b34801561013e57600080fd5b506101476107b5565b6040516101549190610d49565b60405180910390f35b600060405180604001604052803373ffffffffffffffffffffffffffffffffffffffff1681526020018481525090508060028360405161019d9190610da0565b908152602001604051809103902060008201518160000160006101000a81548173ffffffffffffffffffffffffffffffffffffffff021916908373ffffffffffffffffffffffffffffffffffffffff160217905550602082015181600101559050508160405161020d9190610da0565b60405180910390207f6276b46249f3ef9f8582903c6f0d43109febb82b3ec9f4dbd15662bb71ec9c7b336040516102449190610b37565b60405180910390a2505050565b60006002836040516102639190610da0565b90815260200160405180910390209050806001015434101561028457600080fd5b60008160000160009054906101000a900473ffffffffffffffffffffffffffffffffffffffff16905060008173ffffffffffffffffffffffffffffffffffffffff166108fc349081150290604051600060405180830381858888f19350505050905080610326576040517f08c379a000000000000000000000000000000000000000000000000000000000815260040161031d90610e14565b60405180910390fd5b338360000160006101000a81548173ffffffffffffffffffffffffffffffffffffffff021916908373ffffffffffffffffffffffffffffffffffffffff160217905550346003600082825461037b9190610e63565b9250508190555060006040518060a001604052808781526020018473ffffffffffffffffffffffffffffffffffffffff1681526020013373ffffffffffffffffffffffffffffffffffffffff168152602001856001015481526020018681525090506001819080600181540180825580915050600190039060005260206000209060050201600090919091909150600082015181600001908161041e91906110a3565b5060208201518160010160006101000a81548173ffffffffffffffffffffffffffffffffffffffff021916908373ffffffffffffffffffffffffffffffffffffffff16021790555060408201518160020160006101000a81548173ffffffffffffffffffffffffffffffffffffffff021916908373ffffffffffffffffffffffffffffffffffffffff160217905550606082015181600301556080820151816004015550508273ffffffffffffffffffffffffffffffffffffffff163373ffffffffffffffffffffffffffffffffffffffff16876040516104ff9190610da0565b60405180910390207f74c7468233c28bb24b326c802a51215388ccdc1903d62dd93e5c83903b7d7b8d3489604051610538929190611175565b60405180910390a4505050505050565b6105506107bb565b6002826040516105609190610da0565b90815260200160405180910390206040518060400160405290816000820160009054906101000a900473ffffffffffffffffffffffffffffffffffffffff1673ffffffffffffffffffffffffffffffffffffffff1673ffffffffffffffffffffffffffffffffffffffff1681526020016001820154815250509050919050565b60008054906101000a900473ffffffffffffffffffffffffffffffffffffffff1681565b60606001805480602002602001604051908101604052809291908181526020016000905b828210156107ac57838290600052602060002090600502016040518060a001604052908160008201805461065b90610ec6565b80601f016020809104026020016040519081016040528092919081815260200182805461068790610ec6565b80156106d45780601f106106a9576101008083540402835291602001916106d4565b820191906000526020600020905b8154815290600101906020018083116106b757829003601f168201915b505050505081526020016001820160009054906101000a900473ffffffffffffffffffffffffffffffffffffffff1673ffffffffffffffffffffffffffffffffffffffff1673ffffffffffffffffffffffffffffffffffffffff1681526020016002820160009054906101000a900473ffffffffffffffffffffffffffffffffffffffff1673ffffffffffffffffffffffffffffffffffffffff1673ffffffffffffffffffffffffffffffffffffffff1681526020016003820154815260200160048201548152505081526020019060010190610628565b50505050905090565b60035481565b6040518060400160405280600073ffffffffffffffffffffffffffffffffffffffff168152602001600081525090565b6000604051905090565b600080fd5b600080fd5b6000819050919050565b610812816107ff565b811461081d57600080fd5b50565b60008135905061082f81610809565b92915050565b600080fd5b600080fd5b6000601f19601f8301169050919050565b7f4e487b7100000000000000000000000000000000000000000000000000000000600052604160045260246000fd5b6108888261083f565b810181811067ffffffffffffffff821117156108a7576108a6610850565b5b80604052505050565b60006108ba6107eb565b90506108c6828261087f565b919050565b600067ffffffffffffffff8211156108e6576108e5610850565b5b6108ef8261083f565b9050602081019050919050565b82818337600083830152505050565b600061091e610919846108cb565b6108b0565b90508281526020810184848401111561093a5761093961083a565b5b6109458482856108fc565b509392505050565b600082601f83011261096257610961610835565b5b813561097284826020860161090b565b91505092915050565b60008060408385031215610992576109916107f5565b5b60006109a085828601610820565b925050602083013567ffffffffffffffff8111156109c1576109c06107fa565b5b6109cd8582860161094d565b9150509250929050565b600080604083850312156109ee576109ed6107f5565b5b600083013567ffffffffffffffff811115610a0c57610a0b6107fa565b5b610a188582860161094d565b9250506020610a2985828601610820565b9150509250929050565b600060208284031215610a4957610a486107f5565b5b600082013567ffffffffffffffff811115610a6757610a666107fa565b5b610a738482850161094d565b91505092915050565b600073ffffffffffffffffffffffffffffffffffffffff82169050919050565b6000610aa782610a7c565b9050919050565b610ab781610a9c565b82525050565b610ac6816107ff565b82525050565b604082016000820151610ae26000850182610aae565b506020820151610af56020850182610abd565b50505050565b6000604082019050610b106000830184610acc565b92915050565b6000610b2182610a7c565b9050919050565b610b3181610b16565b82525050565b6000602082019050610b4c6000830184610b28565b92915050565b600081519050919050565b600082825260208201905092915050565b6000819050602082019050919050565b600081519050919050565b600082825260208201905092915050565b60005b83811015610bb8578082015181840152602081019050610b9d565b60008484015250505050565b6000610bcf82610b7e565b610bd98185610b89565b9350610be9818560208601610b9a565b610bf28161083f565b840191505092915050565b610c0681610b16565b82525050565b600060a0830160008301518482036000860152610c298282610bc4565b9150506020830151610c3e6020860182610bfd565b506040830151610c516040860182610bfd565b506060830151610c646060860182610abd565b506080830151610c776080860182610abd565b508091505092915050565b6000610c8e8383610c0c565b905092915050565b6000602082019050919050565b6000610cae82610b52565b610cb88185610b5d565b935083602082028501610cca85610b6e565b8060005b85811015610d065784840389528151610ce78582610c82565b9450610cf283610c96565b925060208a01995050600181019050610cce565b50829750879550505050505092915050565b60006020820190508181036000830152610d328184610ca3565b905092915050565b610d43816107ff565b82525050565b6000602082019050610d5e6000830184610d3a565b92915050565b600081905092915050565b6000610d7a82610b7e565b610d848185610d64565b9350610d94818560208601610b9a565b80840191505092915050565b6000610dac8284610d6f565b915081905092915050565b600082825260208201905092915050565b7f5472616e73666572206661696c65640000000000000000000000000000000000600082015250565b6000610dfe600f83610db7565b9150610e0982610dc8565b602082019050919050565b60006020820190508181036000830152610e2d81610df1565b9050919050565b7f4e487b7100000000000000000000000000000000000000000000000000000000600052601160045260246000fd5b6000610e6e826107ff565b9150610e79836107ff565b9250828201905080821115610e9157610e90610e34565b5b92915050565b7f4e487b7100000000000000000000000000000000000000000000000000000000600052602260045260246000fd5b60006002820490506001821680610ede57607f821691505b602082108103610ef157610ef0610e97565b5b50919050565b60008190508160005260206000209050919050565b60006020601f8301049050919050565b600082821b905092915050565b600060088302610f597fffffffffffffffffffffffffffffffffffffffffffffffffffffffffffffffff82610f1c565b610f638683610f1c565b95508019841693508086168417925050509392505050565b6000819050919050565b6000610fa0610f9b610f96846107ff565b610f7b565b6107ff565b9050919050565b6000819050919050565b610fba83610f85565b610fce610fc682610fa7565b848454610f29565b825550505050565b600090565b610fe3610fd6565b610fee818484610fb1565b505050565b5b8181101561101257611007600082610fdb565b600181019050610ff4565b5050565b601f8211156110575761102881610ef7565b61103184610f0c565b81016020851015611040578190505b61105461104c85610f0c565b830182610ff3565b50505b505050565b600082821c905092915050565b600061107a6000198460080261105c565b1980831691505092915050565b60006110938383611069565b9150826002028217905092915050565b6110ac82610b7e565b67ffffffffffffffff8111156110c5576110c4610850565b5b6110cf8254610ec6565b6110da828285611016565b600060209050601f83116001811461110d57600084156110fb578287015190505b6111058582611087565b86555061116d565b601f19841661111b86610ef7565b60005b828110156111435784890151825560018201915060208501945060208101905061111e565b86831015611160578489015161115c601f891682611069565b8355505b6001600288020188555050505b505050505050565b600060408201905061118a6000830185610d3a565b6111976020830184610d3a565b939250505056fea264697066735822122042fe9f5f4f46a12370333f41925ec61764bde4473e6d9f1b524015be8b51953364736f6c63430008180033",
  "linkReferences": {},
  "deployedLinkReferences": {}
}