{
  "_format": "hh-sol-artifact-1",
  "contractName": "Test",
  "sourceName": "contracts/Test.sol",
  "abi": [
    {
      "inputs": [],
      "stateMutability": "nonpayable",
      "type": "constructor"
    },
    {
      "inputs": [
        {
          "internalType": "uint256",
          "name": "",
          "type": "uint256"
        }
      ],
      "name": "data",
      "outputs": [
        {
          "internalType": "uint8",
          "name": "",
          "type": "uint8"
        }
      ],
      "stateMutability": "view",
      "type": "function"
    },
    {
      "inputs": [],
      "name": "inputTest",
      "outputs": [
        {
          "internalType": "uint8[3]",
          "name": "",
          "type": "uint8[3]"
        }
      ],
      "stateMutability": "view",
      "type": "function"
    },
    {
      "inputs": [],
      "name": "testing",
      "outputs": [
        {
          "internalType": "uint8",
          "name": "",
          "type": "uint8"
        }
      ],
      "stateMutability": "view",
      "type": "function"
    },
    {
      "inputs": [],
      "name": "update",
      "outputs": [],
      "stateMutability": "nonpayable",
      "type": "function"
    }
  ],
  "bytecode": "0x60806040526040518060600160405280600560ff168152602001600260ff168152602001600360ff16815250600190600361003b929190610069565b5034801561004857600080fd5b50600a6000806101000a81548160ff021916908360ff160217905550610120565b826003601f016020900481019282156100f25791602002820160005b838211156100c357835183826101000a81548160ff021916908360ff1602179055509260200192600101602081600001049283019260010302610085565b80156100f05782816101000a81549060ff02191690556001016020816000010492830192600103026100c3565b505b5090506100ff9190610103565b5090565b5b8082111561011c576000816000905550600101610104565b5090565b6103cc8061012f6000396000f3fe608060405234801561001057600080fd5b506004361061004c5760003560e01c80638d03b1021461005157806395780c201461006f578063a2e620451461008d578063f0ba844014610097575b600080fd5b6100596100c7565b60405161006691906101e9565b60405180910390f35b6100776100d8565b60405161008491906102af565b60405180910390f35b610095610149565b005b6100b160048036038101906100ac9190610305565b610181565b6040516100be91906101e9565b60405180910390f35b60008054906101000a900460ff1681565b6100e06101ab565b600160038060200260405190810160405280929190826003801561013f576020028201916000905b82829054906101000a900460ff1660ff16815260200190600101906020826000010492830192600103820291508084116101085790505b5050505050905090565b600c6000808282829054906101000a900460ff166101679190610361565b92506101000a81548160ff021916908360ff160217905550565b6001816003811061019157600080fd5b60209182820401919006915054906101000a900460ff1681565b6040518060600160405280600390602082028036833780820191505090505090565b600060ff82169050919050565b6101e3816101cd565b82525050565b60006020820190506101fe60008301846101da565b92915050565b600060039050919050565b600081905092915050565b6000819050919050565b61022d816101cd565b82525050565b600061023f8383610224565b60208301905092915050565b6000602082019050919050565b61026181610204565b61026b818461020f565b92506102768261021a565b8060005b838110156102a757815161028e8782610233565b96506102998361024b565b92505060018101905061027a565b505050505050565b60006060820190506102c46000830184610258565b92915050565b600080fd5b6000819050919050565b6102e2816102cf565b81146102ed57600080fd5b50565b6000813590506102ff816102d9565b92915050565b60006020828403121561031b5761031a6102ca565b5b6000610329848285016102f0565b91505092915050565b7f4e487b7100000000000000000000000000000000000000000000000000000000600052601160045260246000fd5b600061036c826101cd565b9150610377836101cd565b9250828201905060ff8111156103905761038f610332565b5b9291505056fea2646970667358221220902265620a4ca50d9bc6a14464cf9a9f95082ae132ac412a4eafe1ac528ff48b64736f6c63430008180033",
  "linkReferences": {},
  "deployedLinkReferences": {}
}