{
  "_format": "hh-sol-artifact-1",
  "contractName": "Test",
  "sourceName": "contracts/Test.sol",
  "abi": [
    {
      "inputs": [],
      "stateMutability": "nonpayable",
      "type": "constructor"
    },
    {
      "inputs": [
        {
          "internalType": "uint256",
          "name": "",
          "type": "uint256"
        }
      ],
      "name": "data",
      "outputs": [
        {
          "internalType": "uint8",
          "name": "",
          "type": "uint8"
        }
      ],
      "stateMutability": "view",
      "type": "function"
    },
    {
      "inputs": [],
      "name": "inputTest",
      "outputs": [
        {
          "internalType": "uint8[]",
          "name": "",
          "type": "uint8[]"
        }
      ],
      "stateMutability": "view",
      "type": "function"
    },
    {
      "inputs": [],
      "name": "testing",
      "outputs": [
        {
          "internalType": "uint8",
          "name": "",
          "type": "uint8"
        }
      ],
      "stateMutability": "view",
      "type": "function"
    },
    {
      "inputs": [],
      "name": "update",
      "outputs": [],
      "stateMutability": "nonpayable",
      "type": "function"
    }
  ],
  "bytecode": "0x60806040526040518060600160405280600560ff168152602001600260ff168152602001600360ff16815250600190600361003b929190610069565b5034801561004857600080fd5b50600a6000806101000a81548160ff021916908360ff16021790555061012d565b82805482825590600052602060002090601f016020900481019282156100ff5791602002820160005b838211156100d057835183826101000a81548160ff021916908360ff1602179055509260200192600101602081600001049283019260010302610092565b80156100fd5782816101000a81549060ff02191690556001016020816000010492830192600103026100d0565b505b50905061010c9190610110565b5090565b5b80821115610129576000816000905550600101610111565b5090565b6103878061013c6000396000f3fe608060405234801561001057600080fd5b506004361061004c5760003560e01c80638d03b1021461005157806395780c201461006f578063a2e620451461008d578063f0ba844014610097575b600080fd5b6100596100c7565b60405161006691906101ee565b60405180910390f35b6100776100d8565b60405161008491906102c7565b60405180910390f35b610095610156565b005b6100b160048036038101906100ac9190610324565b61019e565b6040516100be91906101ee565b60405180910390f35b60008054906101000a900460ff1681565b6060600180548060200260200160405190810160405280929190818152602001828054801561014c57602002820191906000526020600020906000905b82829054906101000a900460ff1660ff16815260200190600101906020826000010492830192600103820291508084116101155790505b5050505050905090565b6001600a90806001815401808255809150506001900390600052602060002090602091828204019190069091909190916101000a81548160ff021916908360ff160217905550565b600181815481106101ae57600080fd5b9060005260206000209060209182820401919006915054906101000a900460ff1681565b600060ff82169050919050565b6101e8816101d2565b82525050565b600060208201905061020360008301846101df565b92915050565b600081519050919050565b600082825260208201905092915050565b6000819050602082019050919050565b61023e816101d2565b82525050565b60006102508383610235565b60208301905092915050565b6000602082019050919050565b600061027482610209565b61027e8185610214565b935061028983610225565b8060005b838110156102ba5781516102a18882610244565b97506102ac8361025c565b92505060018101905061028d565b5085935050505092915050565b600060208201905081810360008301526102e18184610269565b905092915050565b600080fd5b6000819050919050565b610301816102ee565b811461030c57600080fd5b50565b60008135905061031e816102f8565b92915050565b60006020828403121561033a576103396102e9565b5b60006103488482850161030f565b9150509291505056fea26469706673582212201f509da8e78c1fafc5518e6cb99b67f6090037cc562c51f97ff62559fe90ee7064736f6c63430008180033",
  "linkReferences": {},
  "deployedLinkReferences": {}
}